{
  "_format": "hh-sol-artifact-1",
  "contractName": "DegenToken",
  "sourceName": "contracts/as4.sol",
  "abi": [
    {
      "inputs": [
        {
          "internalType": "address payable",
          "name": "initialOwner",
          "type": "address"
        }
      ],
      "stateMutability": "nonpayable",
      "type": "constructor"
    },
    {
      "inputs": [
        {
          "internalType": "address",
          "name": "spender",
          "type": "address"
        },
        {
          "internalType": "uint256",
          "name": "allowance",
          "type": "uint256"
        },
        {
          "internalType": "uint256",
          "name": "needed",
          "type": "uint256"
        }
      ],
      "name": "ERC20InsufficientAllowance",
      "type": "error"
    },
    {
      "inputs": [
        {
          "internalType": "address",
          "name": "sender",
          "type": "address"
        },
        {
          "internalType": "uint256",
          "name": "balance",
          "type": "uint256"
        },
        {
          "internalType": "uint256",
          "name": "needed",
          "type": "uint256"
        }
      ],
      "name": "ERC20InsufficientBalance",
      "type": "error"
    },
    {
      "inputs": [
        {
          "internalType": "address",
          "name": "approver",
          "type": "address"
        }
      ],
      "name": "ERC20InvalidApprover",
      "type": "error"
    },
    {
      "inputs": [
        {
          "internalType": "address",
          "name": "receiver",
          "type": "address"
        }
      ],
      "name": "ERC20InvalidReceiver",
      "type": "error"
    },
    {
      "inputs": [
        {
          "internalType": "address",
          "name": "sender",
          "type": "address"
        }
      ],
      "name": "ERC20InvalidSender",
      "type": "error"
    },
    {
      "inputs": [
        {
          "internalType": "address",
          "name": "spender",
          "type": "address"
        }
      ],
      "name": "ERC20InvalidSpender",
      "type": "error"
    },
    {
      "inputs": [
        {
          "internalType": "address",
          "name": "owner",
          "type": "address"
        }
      ],
      "name": "OwnableInvalidOwner",
      "type": "error"
    },
    {
      "inputs": [
        {
          "internalType": "address",
          "name": "account",
          "type": "address"
        }
      ],
      "name": "OwnableUnauthorizedAccount",
      "type": "error"
    },
    {
      "anonymous": false,
      "inputs": [
        {
          "indexed": true,
          "internalType": "address",
          "name": "owner",
          "type": "address"
        },
        {
          "indexed": true,
          "internalType": "address",
          "name": "spender",
          "type": "address"
        },
        {
          "indexed": false,
          "internalType": "uint256",
          "name": "value",
          "type": "uint256"
        }
      ],
      "name": "Approval",
      "type": "event"
    },
    {
      "anonymous": false,
      "inputs": [
        {
          "indexed": true,
          "internalType": "address",
          "name": "previousOwner",
          "type": "address"
        },
        {
          "indexed": true,
          "internalType": "address",
          "name": "newOwner",
          "type": "address"
        }
      ],
      "name": "OwnershipTransferred",
      "type": "event"
    },
    {
      "anonymous": false,
      "inputs": [
        {
          "indexed": true,
          "internalType": "address",
          "name": "from",
          "type": "address"
        },
        {
          "indexed": true,
          "internalType": "address",
          "name": "to",
          "type": "address"
        },
        {
          "indexed": false,
          "internalType": "uint256",
          "name": "value",
          "type": "uint256"
        }
      ],
      "name": "Transfer",
      "type": "event"
    },
    {
      "inputs": [],
      "name": "COINS_PRICE",
      "outputs": [
        {
          "internalType": "uint256",
          "name": "",
          "type": "uint256"
        }
      ],
      "stateMutability": "view",
      "type": "function"
    },
    {
      "inputs": [],
      "name": "ELIXIR_PRICE",
      "outputs": [
        {
          "internalType": "uint256",
          "name": "",
          "type": "uint256"
        }
      ],
      "stateMutability": "view",
      "type": "function"
    },
    {
      "inputs": [],
      "name": "GEM_PRICE",
      "outputs": [
        {
          "internalType": "uint256",
          "name": "",
          "type": "uint256"
        }
      ],
      "stateMutability": "view",
      "type": "function"
    },
    {
      "inputs": [
        {
          "internalType": "address",
          "name": "owner",
          "type": "address"
        },
        {
          "internalType": "address",
          "name": "spender",
          "type": "address"
        }
      ],
      "name": "allowance",
      "outputs": [
        {
          "internalType": "uint256",
          "name": "",
          "type": "uint256"
        }
      ],
      "stateMutability": "view",
      "type": "function"
    },
    {
      "inputs": [
        {
          "internalType": "uint256",
          "name": "amount",
          "type": "uint256"
        }
      ],
      "name": "anyoneBurn",
      "outputs": [],
      "stateMutability": "nonpayable",
      "type": "function"
    },
    {
      "inputs": [
        {
          "internalType": "address",
          "name": "spender",
          "type": "address"
        },
        {
          "internalType": "uint256",
          "name": "value",
          "type": "uint256"
        }
      ],
      "name": "approve",
      "outputs": [
        {
          "internalType": "bool",
          "name": "",
          "type": "bool"
        }
      ],
      "stateMutability": "nonpayable",
      "type": "function"
    },
    {
      "inputs": [
        {
          "internalType": "address",
          "name": "account",
          "type": "address"
        }
      ],
      "name": "balanceOf",
      "outputs": [
        {
          "internalType": "uint256",
          "name": "",
          "type": "uint256"
        }
      ],
      "stateMutability": "view",
      "type": "function"
    },
    {
      "inputs": [
        {
          "internalType": "uint256",
          "name": "amount",
          "type": "uint256"
        }
      ],
      "name": "buyCoins",
      "outputs": [],
      "stateMutability": "nonpayable",
      "type": "function"
    },
    {
      "inputs": [
        {
          "internalType": "uint256",
          "name": "amount",
          "type": "uint256"
        }
      ],
      "name": "buyElixir",
      "outputs": [],
      "stateMutability": "nonpayable",
      "type": "function"
    },
    {
      "inputs": [
        {
          "internalType": "uint256",
          "name": "amount",
          "type": "uint256"
        }
      ],
      "name": "buyGems",
      "outputs": [],
      "stateMutability": "nonpayable",
      "type": "function"
    },
    {
      "inputs": [
        {
          "internalType": "address",
          "name": "",
          "type": "address"
        }
      ],
      "name": "coinsBalance",
      "outputs": [
        {
          "internalType": "uint256",
          "name": "",
          "type": "uint256"
        }
      ],
      "stateMutability": "view",
      "type": "function"
    },
    {
      "inputs": [],
      "name": "decimals",
      "outputs": [
        {
          "internalType": "uint8",
          "name": "",
          "type": "uint8"
        }
      ],
      "stateMutability": "view",
      "type": "function"
    },
    {
      "inputs": [
        {
          "internalType": "address",
          "name": "",
          "type": "address"
        }
      ],
      "name": "elixirBalance",
      "outputs": [
        {
          "internalType": "uint256",
          "name": "",
          "type": "uint256"
        }
      ],
      "stateMutability": "view",
      "type": "function"
    },
    {
      "inputs": [
        {
          "internalType": "address",
          "name": "",
          "type": "address"
        }
      ],
      "name": "gemsBalance",
      "outputs": [
        {
          "internalType": "uint256",
          "name": "",
          "type": "uint256"
        }
      ],
      "stateMutability": "view",
      "type": "function"
    },
    {
      "inputs": [
        {
          "internalType": "uint256",
          "name": "amount",
          "type": "uint256"
        }
      ],
      "name": "mint",
      "outputs": [],
      "stateMutability": "nonpayable",
      "type": "function"
    },
    {
      "inputs": [],
      "name": "name",
      "outputs": [
        {
          "internalType": "string",
          "name": "",
          "type": "string"
        }
      ],
      "stateMutability": "view",
      "type": "function"
    },
    {
      "inputs": [],
      "name": "owner",
      "outputs": [
        {
          "internalType": "address",
          "name": "",
          "type": "address"
        }
      ],
      "stateMutability": "view",
      "type": "function"
    },
    {
      "inputs": [
        {
          "internalType": "uint256",
          "name": "amount",
          "type": "uint256"
        }
      ],
      "name": "redeemCoins",
      "outputs": [],
      "stateMutability": "nonpayable",
      "type": "function"
    },
    {
      "inputs": [
        {
          "internalType": "uint256",
          "name": "amount",
          "type": "uint256"
        }
      ],
      "name": "redeemElixir",
      "outputs": [],
      "stateMutability": "nonpayable",
      "type": "function"
    },
    {
      "inputs": [
        {
          "internalType": "uint256",
          "name": "amount",
          "type": "uint256"
        }
      ],
      "name": "redeemGems",
      "outputs": [],
      "stateMutability": "nonpayable",
      "type": "function"
    },
    {
      "inputs": [],
      "name": "renounceOwnership",
      "outputs": [],
      "stateMutability": "nonpayable",
      "type": "function"
    },
    {
      "inputs": [],
      "name": "symbol",
      "outputs": [
        {
          "internalType": "string",
          "name": "",
          "type": "string"
        }
      ],
      "stateMutability": "view",
      "type": "function"
    },
    {
      "inputs": [],
      "name": "totalSupply",
      "outputs": [
        {
          "internalType": "uint256",
          "name": "",
          "type": "uint256"
        }
      ],
      "stateMutability": "view",
      "type": "function"
    },
    {
      "inputs": [
        {
          "internalType": "address",
          "name": "recipient",
          "type": "address"
        },
        {
          "internalType": "uint256",
          "name": "amount",
          "type": "uint256"
        }
      ],
      "name": "transfer",
      "outputs": [
        {
          "internalType": "bool",
          "name": "",
          "type": "bool"
        }
      ],
      "stateMutability": "nonpayable",
      "type": "function"
    },
    {
      "inputs": [
        {
          "internalType": "address",
          "name": "from",
          "type": "address"
        },
        {
          "internalType": "address",
          "name": "to",
          "type": "address"
        },
        {
          "internalType": "uint256",
          "name": "value",
          "type": "uint256"
        }
      ],
      "name": "transferFrom",
      "outputs": [
        {
          "internalType": "bool",
          "name": "",
          "type": "bool"
        }
      ],
      "stateMutability": "nonpayable",
      "type": "function"
    },
    {
      "inputs": [
        {
          "internalType": "address",
          "name": "newOwner",
          "type": "address"
        }
      ],
      "name": "transferOwnership",
      "outputs": [],
      "stateMutability": "nonpayable",
      "type": "function"
    }
  ],
  "bytecode": "0x60806040526000600660006101000a81548173ffffffffffffffffffffffffffffffffffffffff021916908373ffffffffffffffffffffffffffffffffffffffff16021790555034801561005257600080fd5b50604051612320380380612320833981810160405281019061007491906102f5565b806040518060400160405280600581526020017f446567656e0000000000000000000000000000000000000000000000000000008152506040518060400160405280600381526020017f44474e000000000000000000000000000000000000000000000000000000000081525081600390816100f09190610572565b5080600490816101009190610572565b505050600073ffffffffffffffffffffffffffffffffffffffff168173ffffffffffffffffffffffffffffffffffffffff16036101755760006040517f1e4fbdf700000000000000000000000000000000000000000000000000000000815260040161016c9190610665565b60405180910390fd5b610184816101cc60201b60201c565b5080600660006101000a81548173ffffffffffffffffffffffffffffffffffffffff021916908373ffffffffffffffffffffffffffffffffffffffff16021790555050610680565b6000600560009054906101000a900473ffffffffffffffffffffffffffffffffffffffff16905081600560006101000a81548173ffffffffffffffffffffffffffffffffffffffff021916908373ffffffffffffffffffffffffffffffffffffffff1602179055508173ffffffffffffffffffffffffffffffffffffffff168173ffffffffffffffffffffffffffffffffffffffff167f8be0079c531659141344cd1fd0a4f28419497f9722a3daafe3b4186f6b6457e060405160405180910390a35050565b600080fd5b600073ffffffffffffffffffffffffffffffffffffffff82169050919050565b60006102c282610297565b9050919050565b6102d2816102b7565b81146102dd57600080fd5b50565b6000815190506102ef816102c9565b92915050565b60006020828403121561030b5761030a610292565b5b6000610319848285016102e0565b91505092915050565b600081519050919050565b7f4e487b7100000000000000000000000000000000000000000000000000000000600052604160045260246000fd5b7f4e487b7100000000000000000000000000000000000000000000000000000000600052602260045260246000fd5b600060028204905060018216806103a357607f821691505b6020821081036103b6576103b561035c565b5b50919050565b60008190508160005260206000209050919050565b60006020601f8301049050919050565b600082821b905092915050565b60006008830261041e7fffffffffffffffffffffffffffffffffffffffffffffffffffffffffffffffff826103e1565b61042886836103e1565b95508019841693508086168417925050509392505050565b6000819050919050565b6000819050919050565b600061046f61046a61046584610440565b61044a565b610440565b9050919050565b6000819050919050565b61048983610454565b61049d61049582610476565b8484546103ee565b825550505050565b600090565b6104b26104a5565b6104bd818484610480565b505050565b5b818110156104e1576104d66000826104aa565b6001810190506104c3565b5050565b601f821115610526576104f7816103bc565b610500846103d1565b8101602085101561050f578190505b61052361051b856103d1565b8301826104c2565b50505b505050565b600082821c905092915050565b60006105496000198460080261052b565b1980831691505092915050565b60006105628383610538565b9150826002028217905092915050565b61057b82610322565b67ffffffffffffffff8111156105945761059361032d565b5b61059e825461038b565b6105a98282856104e5565b600060209050601f8311600181146105dc57600084156105ca578287015190505b6105d48582610556565b86555061063c565b601f1984166105ea866103bc565b60005b82811015610612578489015182556001820191506020850194506020810190506105ed565b8683101561062f578489015161062b601f891682610538565b8355505b6001600288020188555050505b505050505050565b600061064f82610297565b9050919050565b61065f81610644565b82525050565b600060208201905061067a6000830184610656565b92915050565b611c918061068f6000396000f3fe608060405234801561001057600080fd5b506004361061018e5760003560e01c80638da5cb5b116100de578063cab3ea0d11610097578063f2cfe96d11610071578063f2cfe96d14610499578063f2fde38b146104b5578063fe468196146104d1578063fe600baf146104ed5761018e565b8063cab3ea0d14610409578063db724cef14610439578063dd62ed3e146104695761018e565b80638da5cb5b1461034757806393ce9ee51461036557806395d89b4114610381578063a0712d681461039f578063a9059cbb146103bb578063c979b9f9146103eb5761018e565b806339eb283c1161014b57806370a082311161012557806370a08231146102d1578063715018a6146103015780637cb372701461030b578063887a17b3146103295761018e565b806339eb283c146102695780633c5038bf146102855780633d7c18a1146102b55761018e565b806303fa00211461019357806306fdde03146101af578063095ea7b3146101cd57806318160ddd146101fd57806323b872dd1461021b578063313ce5671461024b575b600080fd5b6101ad60048036038101906101a8919061163d565b610509565b005b6101b7610538565b6040516101c491906116fa565b60405180910390f35b6101e760048036038101906101e2919061177a565b6105ca565b6040516101f491906117d5565b60405180910390f35b6102056105ed565b60405161021291906117ff565b60405180910390f35b6102356004803603810190610230919061181a565b6105f7565b60405161024291906117d5565b60405180910390f35b610253610626565b6040516102609190611889565b60405180910390f35b610283600480360381019061027e919061163d565b61062f565b005b61029f600480360381019061029a91906118a4565b610720565b6040516102ac91906117ff565b60405180910390f35b6102cf60048036038101906102ca919061163d565b610738565b005b6102eb60048036038101906102e691906118a4565b6107f8565b6040516102f891906117ff565b60405180910390f35b610309610840565b005b610313610854565b60405161032091906117ff565b60405180910390f35b610331610859565b60405161033e91906117ff565b60405180910390f35b61034f61085e565b60405161035c91906118e0565b60405180910390f35b61037f600480360381019061037a919061163d565b610888565b005b610389610979565b60405161039691906116fa565b60405180910390f35b6103b960048036038101906103b4919061163d565b610a0b565b005b6103d560048036038101906103d0919061177a565b610a42565b6040516103e291906117d5565b60405180910390f35b6103f3610a60565b60405161040091906117ff565b60405180910390f35b610423600480360381019061041e91906118a4565b610a65565b60405161043091906117ff565b60405180910390f35b610453600480360381019061044e91906118a4565b610a7d565b60405161046091906117ff565b60405180910390f35b610483600480360381019061047e91906118fb565b610a95565b60405161049091906117ff565b60405180910390f35b6104b360048036038101906104ae919061163d565b610b1c565b005b6104cf60048036038101906104ca91906118a4565b610c0d565b005b6104eb60048036038101906104e6919061163d565b610c93565b005b6105076004803603810190610502919061163d565b610d53565b005b610535600660009054906101000a900473ffffffffffffffffffffffffffffffffffffffff1682610e13565b50565b6060600380546105479061196a565b80601f01602080910402602001604051908101604052809291908181526020018280546105739061196a565b80156105c05780601f10610595576101008083540402835291602001916105c0565b820191906000526020600020905b8154815290600101906020018083116105a357829003601f168201915b5050505050905090565b6000806105d5610e95565b90506105e2818585610e9d565b600191505092915050565b6000600254905090565b600080610602610e95565b905061060f858285610eaf565b61061a858585610f43565b60019150509392505050565b60006012905090565b80600860003373ffffffffffffffffffffffffffffffffffffffff1673ffffffffffffffffffffffffffffffffffffffff1681526020019081526020016000205410156106b1576040517f08c379a00000000000000000000000000000000000000000000000000000000081526004016106a8906119e7565b60405180910390fd5b80600860003373ffffffffffffffffffffffffffffffffffffffff1673ffffffffffffffffffffffffffffffffffffffff16815260200190815260200160002060008282546107009190611a36565b9250508190555061071d336032836107189190611a6a565b611037565b50565b60086020528060005260406000206000915090505481565b600060c8826107479190611a6a565b905080610753336107f8565b1015610794576040517f08c379a000000000000000000000000000000000000000000000000000000000815260040161078b90611af8565b60405180910390fd5b81600960003373ffffffffffffffffffffffffffffffffffffffff1673ffffffffffffffffffffffffffffffffffffffff16815260200190815260200160002060008282546107e39190611b18565b925050819055506107f43382610e13565b5050565b60008060008373ffffffffffffffffffffffffffffffffffffffff1673ffffffffffffffffffffffffffffffffffffffff168152602001908152602001600020549050919050565b6108486110b9565b6108526000611140565b565b603281565b60c881565b6000600560009054906101000a900473ffffffffffffffffffffffffffffffffffffffff16905090565b80600760003373ffffffffffffffffffffffffffffffffffffffff1673ffffffffffffffffffffffffffffffffffffffff16815260200190815260200160002054101561090a576040517f08c379a000000000000000000000000000000000000000000000000000000000815260040161090190611b98565b60405180910390fd5b80600760003373ffffffffffffffffffffffffffffffffffffffff1673ffffffffffffffffffffffffffffffffffffffff16815260200190815260200160002060008282546109599190611a36565b92505081905550610976336064836109719190611a6a565b611037565b50565b6060600480546109889061196a565b80601f01602080910402602001604051908101604052809291908181526020018280546109b49061196a565b8015610a015780601f106109d657610100808354040283529160200191610a01565b820191906000526020600020905b8154815290600101906020018083116109e457829003601f168201915b5050505050905090565b610a136110b9565b610a3f600660009054906101000a900473ffffffffffffffffffffffffffffffffffffffff1682611037565b50565b6000610a56610a4f610e95565b8484610f43565b6001905092915050565b606481565b60076020528060005260406000206000915090505481565b60096020528060005260406000206000915090505481565b6000600160008473ffffffffffffffffffffffffffffffffffffffff1673ffffffffffffffffffffffffffffffffffffffff16815260200190815260200160002060008373ffffffffffffffffffffffffffffffffffffffff1673ffffffffffffffffffffffffffffffffffffffff16815260200190815260200160002054905092915050565b80600960003373ffffffffffffffffffffffffffffffffffffffff1673ffffffffffffffffffffffffffffffffffffffff168152602001908152602001600020541015610b9e576040517f08c379a0000000000000000000000000000000000000000000000000000000008152600401610b9590611c04565b60405180910390fd5b80600960003373ffffffffffffffffffffffffffffffffffffffff1673ffffffffffffffffffffffffffffffffffffffff1681526020019081526020016000206000828254610bed9190611a36565b92505081905550610c0a3360c883610c059190611a6a565b611037565b50565b610c156110b9565b600073ffffffffffffffffffffffffffffffffffffffff168173ffffffffffffffffffffffffffffffffffffffff1603610c875760006040517f1e4fbdf7000000000000000000000000000000000000000000000000000000008152600401610c7e91906118e0565b60405180910390fd5b610c9081611140565b50565b6000603282610ca29190611a6a565b905080610cae336107f8565b1015610cef576040517f08c379a0000000000000000000000000000000000000000000000000000000008152600401610ce690611af8565b60405180910390fd5b81600860003373ffffffffffffffffffffffffffffffffffffffff1673ffffffffffffffffffffffffffffffffffffffff1681526020019081526020016000206000828254610d3e9190611b18565b92505081905550610d4f3382610e13565b5050565b6000606482610d629190611a6a565b905080610d6e336107f8565b1015610daf576040517f08c379a0000000000000000000000000000000000000000000000000000000008152600401610da690611af8565b60405180910390fd5b81600760003373ffffffffffffffffffffffffffffffffffffffff1673ffffffffffffffffffffffffffffffffffffffff1681526020019081526020016000206000828254610dfe9190611b18565b92505081905550610e0f3382610e13565b5050565b600073ffffffffffffffffffffffffffffffffffffffff168273ffffffffffffffffffffffffffffffffffffffff1603610e855760006040517f96c6fd1e000000000000000000000000000000000000000000000000000000008152600401610e7c91906118e0565b60405180910390fd5b610e9182600083611206565b5050565b600033905090565b610eaa838383600161142b565b505050565b6000610ebb8484610a95565b90507fffffffffffffffffffffffffffffffffffffffffffffffffffffffffffffffff8114610f3d5781811015610f2d578281836040517ffb8f41b2000000000000000000000000000000000000000000000000000000008152600401610f2493929190611c24565b60405180910390fd5b610f3c8484848403600061142b565b5b50505050565b600073ffffffffffffffffffffffffffffffffffffffff168373ffffffffffffffffffffffffffffffffffffffff1603610fb55760006040517f96c6fd1e000000000000000000000000000000000000000000000000000000008152600401610fac91906118e0565b60405180910390fd5b600073ffffffffffffffffffffffffffffffffffffffff168273ffffffffffffffffffffffffffffffffffffffff16036110275760006040517fec442f0500000000000000000000000000000000000000000000000000000000815260040161101e91906118e0565b60405180910390fd5b611032838383611206565b505050565b600073ffffffffffffffffffffffffffffffffffffffff168273ffffffffffffffffffffffffffffffffffffffff16036110a95760006040517fec442f050000000000000000000000000000000000000000000000000000000081526004016110a091906118e0565b60405180910390fd5b6110b560008383611206565b5050565b6110c1610e95565b73ffffffffffffffffffffffffffffffffffffffff166110df61085e565b73ffffffffffffffffffffffffffffffffffffffff161461113e57611102610e95565b6040517f118cdaa700000000000000000000000000000000000000000000000000000000815260040161113591906118e0565b60405180910390fd5b565b6000600560009054906101000a900473ffffffffffffffffffffffffffffffffffffffff16905081600560006101000a81548173ffffffffffffffffffffffffffffffffffffffff021916908373ffffffffffffffffffffffffffffffffffffffff1602179055508173ffffffffffffffffffffffffffffffffffffffff168173ffffffffffffffffffffffffffffffffffffffff167f8be0079c531659141344cd1fd0a4f28419497f9722a3daafe3b4186f6b6457e060405160405180910390a35050565b600073ffffffffffffffffffffffffffffffffffffffff168373ffffffffffffffffffffffffffffffffffffffff160361125857806002600082825461124c9190611b18565b9250508190555061132b565b60008060008573ffffffffffffffffffffffffffffffffffffffff1673ffffffffffffffffffffffffffffffffffffffff168152602001908152602001600020549050818110156112e4578381836040517fe450d38c0000000000000000000000000000000000000000000000000000000081526004016112db93929190611c24565b60405180910390fd5b8181036000808673ffffffffffffffffffffffffffffffffffffffff1673ffffffffffffffffffffffffffffffffffffffff16815260200190815260200160002081905550505b600073ffffffffffffffffffffffffffffffffffffffff168273ffffffffffffffffffffffffffffffffffffffff160361137457806002600082825403925050819055506113c1565b806000808473ffffffffffffffffffffffffffffffffffffffff1673ffffffffffffffffffffffffffffffffffffffff168152602001908152602001600020600082825401925050819055505b8173ffffffffffffffffffffffffffffffffffffffff168373ffffffffffffffffffffffffffffffffffffffff167fddf252ad1be2c89b69c2b068fc378daa952ba7f163c4a11628f55a4df523b3ef8360405161141e91906117ff565b60405180910390a3505050565b600073ffffffffffffffffffffffffffffffffffffffff168473ffffffffffffffffffffffffffffffffffffffff160361149d5760006040517fe602df0500000000000000000000000000000000000000000000000000000000815260040161149491906118e0565b60405180910390fd5b600073ffffffffffffffffffffffffffffffffffffffff168373ffffffffffffffffffffffffffffffffffffffff160361150f5760006040517f94280d6200000000000000000000000000000000000000000000000000000000815260040161150691906118e0565b60405180910390fd5b81600160008673ffffffffffffffffffffffffffffffffffffffff1673ffffffffffffffffffffffffffffffffffffffff16815260200190815260200160002060008573ffffffffffffffffffffffffffffffffffffffff1673ffffffffffffffffffffffffffffffffffffffff1681526020019081526020016000208190555080156115fc578273ffffffffffffffffffffffffffffffffffffffff168473ffffffffffffffffffffffffffffffffffffffff167f8c5be1e5ebec7d5bd14f71427d1e84f3dd0314c0f7b2291e5b200ac8c7c3b925846040516115f391906117ff565b60405180910390a35b50505050565b600080fd5b6000819050919050565b61161a81611607565b811461162557600080fd5b50565b60008135905061163781611611565b92915050565b60006020828403121561165357611652611602565b5b600061166184828501611628565b91505092915050565b600081519050919050565b600082825260208201905092915050565b60005b838110156116a4578082015181840152602081019050611689565b60008484015250505050565b6000601f19601f8301169050919050565b60006116cc8261166a565b6116d68185611675565b93506116e6818560208601611686565b6116ef816116b0565b840191505092915050565b6000602082019050818103600083015261171481846116c1565b905092915050565b600073ffffffffffffffffffffffffffffffffffffffff82169050919050565b60006117478261171c565b9050919050565b6117578161173c565b811461176257600080fd5b50565b6000813590506117748161174e565b92915050565b6000806040838503121561179157611790611602565b5b600061179f85828601611765565b92505060206117b085828601611628565b9150509250929050565b60008115159050919050565b6117cf816117ba565b82525050565b60006020820190506117ea60008301846117c6565b92915050565b6117f981611607565b82525050565b600060208201905061181460008301846117f0565b92915050565b60008060006060848603121561183357611832611602565b5b600061184186828701611765565b935050602061185286828701611765565b925050604061186386828701611628565b9150509250925092565b600060ff82169050919050565b6118838161186d565b82525050565b600060208201905061189e600083018461187a565b92915050565b6000602082840312156118ba576118b9611602565b5b60006118c884828501611765565b91505092915050565b6118da8161173c565b82525050565b60006020820190506118f560008301846118d1565b92915050565b6000806040838503121561191257611911611602565b5b600061192085828601611765565b925050602061193185828601611765565b9150509250929050565b7f4e487b7100000000000000000000000000000000000000000000000000000000600052602260045260246000fd5b6000600282049050600182168061198257607f821691505b6020821081036119955761199461193b565b5b50919050565b7f496e73756666696369656e7420636f696e732062616c616e6365000000000000600082015250565b60006119d1601a83611675565b91506119dc8261199b565b602082019050919050565b60006020820190508181036000830152611a00816119c4565b9050919050565b7f4e487b7100000000000000000000000000000000000000000000000000000000600052601160045260246000fd5b6000611a4182611607565b9150611a4c83611607565b9250828203905081811115611a6457611a63611a07565b5b92915050565b6000611a7582611607565b9150611a8083611607565b9250828202611a8e81611607565b91508282048414831517611aa557611aa4611a07565b5b5092915050565b7f496e73756666696369656e7420446567656e20546f6b656e2062616c616e6365600082015250565b6000611ae2602083611675565b9150611aed82611aac565b602082019050919050565b60006020820190508181036000830152611b1181611ad5565b9050919050565b6000611b2382611607565b9150611b2e83611607565b9250828201905080821115611b4657611b45611a07565b5b92915050565b7f496e73756666696369656e7420656c697869722062616c616e63650000000000600082015250565b6000611b82601b83611675565b9150611b8d82611b4c565b602082019050919050565b60006020820190508181036000830152611bb181611b75565b9050919050565b7f496e73756666696369656e742067656d732062616c616e636500000000000000600082015250565b6000611bee601983611675565b9150611bf982611bb8565b602082019050919050565b60006020820190508181036000830152611c1d81611be1565b9050919050565b6000606082019050611c3960008301866118d1565b611c4660208301856117f0565b611c5360408301846117f0565b94935050505056fea264697066735822122018dce026699299c004386d023dd13a0daae1f551a753e87c7d5c82ce4c17659164736f6c63430008190033",
  "linkReferences": {},
  "deployedLinkReferences": {}
}